:060000000A128A110C280F
:10000800FE00030EF2000A08F3000A128A111528EE
:100018000A128A110F28F001F10183010A128A11CC
:1000280037288B1C18281928302805308312031309
:1000380081000B110130F0070318F10A0030F107B5
:10004800E8307006033003197106031D2C282D288B
:1000580030288809F001F10173088A00720E8300C4
:10006800FE0E7E0E09008316031381128111011101
:10007800811401108B178B160B118801831203133F
:0A008800880145280A128A110C288D
:02400E007A3FF7
:00000001FF
